:020000040800F2
:1000000068C70120B19000089529000897290008C9
:100010009B2900089F290008A32900080000000070
:10002000000000000000000000000000A7290008F8
:10003000A929000800000000AB290008AD2900082C
:10004000CB900008CB900008CB900008CB90000824
:10005000CB900008CB900008CB900008CB90000814
:10006000CB900008CB900008CB900008CB90000804
:10007000CB900008CB900008CB900008CB900008F4
:10008000CB900008CB900008CB900008CB900008E4
:10009000CB900008CB900008CB900008AF29000857
:1000A000CB900008CB900008CB900008CB900008C4
:1000B000CB900008018B0008C9C50008CB90000850
:1000C000CB900008CB900008CB900008CB900008A4
:1000D000CB90000827900008CB900008CB90000838
:1000E000CB900008CB900008CB900008CB90000884
:1000F000CB900008CB900008CB900008CB90000874
:10010000CB900008D5270008CB900008CB900008C2
:10011000CB900008CB900008CB900008CB90000853
:10012000CB900008CB900008CB900008CB90000843
:10013000CB900008CB900008CB900008CB90000833
:10014000CB900008CB900008CB900008CB90000823
:10015000CB900008CB900008CB900008CB90000813
:10016000CB900008CB900008CB900008CB90000803
:10017000CB900008CB900008CB900008CB900008F3
:10018000CB900008CB90000800F002F800F06DF86A
:100190000AA090E8000C82448344AAF10107DA45E2
:1001A00001D100F062F8AFF2090EBAE80F0013F0C7
:1001B000010F18BFFB1A43F001031847C8370100AD
:1001C000E83701000A444FF0000C10F8013B13F02F
:1001D000070408BF10F8014B1D1108BF10F8015BA0
:1001E000641E05D010F8016B641E01F8016BF9D193
:1001F00013F0080F1EBF10F8014BAD1C0C1B09D1EA
:100200006D1E58BF01F801CBFAD505E014F8016B5B
:1002100001F8016B6D1EF9D59142D6D370470000ED
:100220000023002400250026103A28BF78C1FBD8FF
:10023000520728BF30C148BF0B607047642910F0D7
:100240002187752910F01E87782910F057876329B8
:1002500011F0B881732911F0BD81002070471FB5DE
:1002600011F062FB1FBD10B510BD11F0E5F911468C
:10027000FFF7F5FF00F034FA11F003FA03B4FFF7CB
:10028000F2FF03BC08F070FE30BF72B6704762B672
:10029000704780F308887047F0B597B01822F94985
:1002A0000DA811F07FF81822F649183107A811F0AF
:1002B00079F81822F349303101A811F073F8F248A7
:1002C000007800287ED0042002F0CBFEEF48808822
:1002D00041F66311884215D1EC4A5288A2F5A07606
:1002E00006EBD672C2F34F01E84A1288A2F1F0077A
:1002F00007EBD772C2F34F004FF4A073F02203F064
:10030000FEF920E0E148808845F21051884205D08E
:10031000DE48808845F21031884214D1DB4A528889
:10032000A2F1F00606EBD672C2F34F01D74A12884B
:10033000A2F5A07707EBD772C2F34F00F0234FF47A
:10034000A07203F0DCF902F08AFC0020D0490860BA
:100350004020D0494883088348830120CE49C1F812
:1003600090024020CB490883002441E04020C94945
:100370004883CA480068C0F38310C849096801F47B
:10038000006140EAD110C649096801F040014908FE
:10039000C44A126902F0600241EA420140EA0105E2
:1003A0004020BC4908834FF6FF7000EA0525402035
:1003B0004883BA480068C0F38310B849096801F45B
:1003C000006100E0AFE040EAD110B549096801F0F2
:1003D00040014908B34A126902F0600241EA420151
:1003E000084305434020AB490883AF480580641C9F
:1003F000B4F5963FBAD313A907A807F008FF002861
:100400007ED04FF478400090169F149EA6EB5706BE
:10041000761CB3B2159F139E06EB5706B2B2169F19
:10042000149EA6EB5706B1B2159F139EA6EB570676
:10043000B0B206F05BFF4FF478400090169F149E18
:1004400006EB5706B3B2159F139EA6EB5706761C14
:10045000B2B2169F149EA6EB5706B1B2159F139E1B
:10046000A6EB5706B0B206F041FF4FF4784000907B
:10047000169F149E06EB5706761CB3B2159F139E6B
:1004800006EB5706B2B2169F149E06EB5706B1B2A2
:10049000159F139EA6EB5706B0B206F027FF4FF448
:1004A00078400090169F149E06EB5706B3B2159F36
:1004B000139E06EB5706761CB2B2169F149EA6EB4F
:1004C0005706B1B2159F139E06EB5706B0B206F061
:1004D0000DFF4FF4FC600090149EB61CB3B2139E47
:1004E000B61CB2B2149EB61EB1B2139EB61EB0B206
:1004F00006F0FCFE6D49139808806D49149800E0E1
:1005000000E008804FF6FF706A4908801020012340
:100510001A4606210090FA2007F0C9F800205A492F
:10052000087002F09EFD17B0F0BD2DE9F04156486D
:100530000078002871D0042002F093FD5348808891
:1005400041F66311884215D1504A5288A2F5A0772E
:1005500007EBD772C2F34F014C4A1288A2F1F008A0
:1005600008EBD872C2F34F004FF4A073F02203F0EF
:10057000C6F820E04548808845F21051884205D0F1
:100580004248808845F21031884214D13F4A52884F
:10059000A2F1F00707EBD772C2F34F013B4A128872
:1005A000A2F5A07808EBD872C2F34F00F0234FF405
:1005B000A07203F0A4F802F052FB00203449086056
:1005C0004020344948830883488301203249C1F8D8
:1005D000900240202F490883002429E0002622E0D1
:1005E00040202C4948832D480068C5B2402008832C
:1005F0004FF6FF7000EA0525402048832748006831
:10060000C0B20543402008832B480088854205DDA1
:100610004FF6FF702449088003E032E000202249B1
:100620000880701C86B2B6F5A07FD9DB601C84B24E
:10063000F02CD3DB0020144908704FF480700BF0CD
:100640006AFB002002F00DFD002007F039F91B497C
:10065000087008460078A0B10846007801282FD01D
:1006600004283AD114480088FA3013490880084613
:1006700000884FF6DC71884202DB00200E490880BA
:100680002BE02BE03419010818000020C8060020D8
:100690009002404200000240000040421008024028
:1006A00010040240001002408000006C0000002096
:1006B000020000203000002006000020040000207E
:1006C000FD480088FA38FC4908800846008814284C
:1006D00002DA4FF6DC70088000BF00BFBDE8F08191
:1006E0000EB5012400BF00BF4FF4A06008F000FD6C
:1006F000A82008F0B7FB4FF4E13008F042FC03F00B
:1007000041F907F0BFF842F2CF0142F20F7008F052
:10071000CBF907F0E5F919E0E8A010210B46F0222B
:10072000CDE9001082211E2007F079F8C82008F0DA
:10073000FBFB4FF6FF70AA23EF22822100901E20C0
:1007400006F0D4FDC82008F0EFFB002407F0DCFD24
:100750000028E1D107F013FF0122F0214FF4A0702F
:1007600007F058FE0020D849086003F0D9F8D748B0
:100770004168A8208847002003F0D2F84FF6FF70A8
:10078000D349088001201021D2A20B46CDE90021D7
:100790000290C8221421002010F055FBC82008F058
:1007A000C3FB4FF4FC60CA49088001201021CEA28F
:1007B0000B46CDE900210290C8221421962010F0AA
:1007C00042FB1CB34FF6FF70C14908800120102185
:1007D000C8A20B46CDE900210290C822502100207A
:1007E00010F031FBC82008F09FFB4FF4FC60B849C3
:1007F000088001201021C2A20B46CDE90021029001
:10080000C8225021962010F01EFB22E04FF6FF7008
:10081000AF49088001201021B6A20B46CDE9002186
:100820000290C8225021002010F00DFBC82008F0D3
:100830007BFB4FF47840A649088001201021B3A229
:100840000B46CDE900210290C8225021962010F0DD
:10085000FAFA4FF6FF709E49088001201021AEA2DF
:100860000B46CDE900210290C8226421002010F03F
:10087000EAFAC82008F058FB4FF4FC60944908805D
:10088000012010219EA20B46CDE900210290C82232
:100890006421962010F0D7FA08F065F908F0E7F91E
:1008A00008F0E5F918BB4FF6FF7089490880012070
:1008B00010219CA20B46CDE900210290C82278218C
:1008C000002010F0C0FAC82008F02EFB4FF4FC60A6
:1008D0007F4908800120102189A20B46CDE9002123
:1008E0000290C8227821962010F0ADFA22E04FF64F
:1008F000FF7077490880012010218AA20B46CDE9BC
:1009000000210290C8227821002010F09CFAC82013
:1009100008F00AFB4FF478406D490880012010214F
:100920007AA20B46CDE900210290C82278219620B8
:1009300010F089FA012018217EA20B46CDE9002192
:100940000290C8224FF49171142010F07CFA4FF4F9
:10095000FA7008F0E9FA00BF002002F0E1FF4FF65C
:10096000FF705B4908800120102177A20B46CDE97A
:1009700000210290C8221E213C2010F064FA4FF49E
:100980007840534908800120102174A20B46CDE91C
:1009900000210290C82264210A2010F054FA4FF678
:1009A000FF704B490880012010216EA20B46CDE953
:1009B00000210290C82264215A2010F044FA3C2001
:1009C00008F0B2FA4FF47840414908800120102124
:1009D00068A20B46CDE900210290C82282210A209C
:1009E00010F031FA4FF6FF703949088001201021CC
:1009F00062A20B46CDE900210290C82282215A2032
:100A000010F021FA3C2008F08FFA4FF4784030497A
:100A10000880012010215EA20B46CDE90021029042
:100A2000C822A0210A2010F00EFA4FF6FF702849C4
:100A30000880012010215AA20B46CDE90021029026
:100A4000C822A021AA2010F0FEF93C2008F06CFA80
:100A50000120182154A20B46CDE900210290C822A2
:100A60004FF491713C2010F0EEF93C2008F05CFA54
:100A700008F079F818E04FA010210B46C822CDE904
:100A8000001082211E2006F0CAFEC82008F04CFA91
:100A90004FF6FF709223EF22822100901E2006F075
:100AA00025FCC82008F040FA08F0E1F80028E2D15F
:100AB00008F074F9BBE00000060000204F563737FD
:100AC0003235204552520000BC02434288010020CA
:100AD00030000020506F7765722D4F6E2053656C8B
:100AE000662D5465737400002D2D52756E6E696EFF
:100AF0006700000043616D65726120496E69740092
:100B00002D2D436F6D706C65746500002D2D466151
:100B1000696C7572650000004C434420496E69742D
:100B2000000000004E524632344C303120496E698C
:100B30007400000053656C662D7465737420636FD8
:100B40006D706C6574656400496D616765205072F5
:100B50006F63657373696E670000000046756E63AE
:100B60005F313A0042696E6172697A6174696F6ED1
:100B70000000000046756E635F323A00436F6C6F91
:100B800072205265636F676E6974696F6E00000052
:100B900052657065617420427574746F6E3A00001E
:100BA0004261636B00000000323031392F352F3045
:100BB000310000004E524632344C303120457272C2
:100BC0006F7200001A4808F0CCF870BB002018497A
:100BD00081F820000846007888B90FE008F0DEF8B8
:100BE000FFF7A3FC124808F0BCF838B90020104900
:100BF00081F820000846007800B9ADE6EEE70C4821
:100C00004078012813D111E008F0C8F8FFF744FB41
:100C1000074808F0A6F848B90020054981F82000E7
:100C200008464078012801D196E600E0ECE7C9E7E4
:100C3000E00300200020FE490860091D0860091D2E
:100C40000860091D0860FA4924310860091D086020
:100C5000091D0860F748F649383108600020091D71
:100C60000860704701460020012900D011B9F24BFD
:100C7000197000E0262070470146ED4A121D1068E9
:100C800020F0FF0008431060704770B5044606E08E
:100C9000E7483430056805F0450000B100E0F7E7AB
:100CA00000BF04200AF0BEFD20B104200AF0C5FDFB
:100CB000032070BD01200AF0B5FD20B101200AF02B
:100CC000BCFD0120F5E7DA4810300068A04201D0F1
:100CD0001020EEE740F2FF500AF0AFFDD448143088
:100CE000006808210840C0B2E3E72DE9FC4107464F
:100CF0000D46002600240020009001900820CF49D6
:100D0000086010204860402088600020C8604FF4D0
:100D10008060086108460AF0F2FC1020FFF7B5FF7A
:100D2000044614B12046BDE8FC81C5480088000493
:100D3000C249086037204860402088600020C860B1
:100D40004FF48060086108460AF0D9FC3720FFF7AD
:100D50009CFF04460CB12046E5E74FF0FF30B9494F
:100D6000086008204860302088600220C8600020A9
:100D700008610120486108460AF0EDFC0020AF49F7
:100D8000086033204860402088600020C8604FF42D
:100D90008060086108460AF0B2FC3320FFF775FF57
:100DA00004460CB12046BEE70DE04FF400100AF0F7
:100DB00039FD40B19E48803000684DF82600761C11
:100DC000022E00D307E09A483430006840F22A61CE
:100DD00008400028E9D000BF08200AF023FD20B118
:100DE00008200AF02AFD04209DE702200AF01AFDDF
:100DF00020B102200AF021FD022094E720200AF011
:100E000011FD20B120200AF018FD06208BE74FF4D9
:100E100000700AF007FD28B14FF400700AF00DFDD4
:100E2000072080E740F2FF500AF007FD0098000617
:100E3000009901F47F4140EA0120009901F47F010B
:100E400040EA1120009940EA1160686001980006AC
:100E5000019901F47F4140EA0120019901F47F01E9
:100E600040EA1120019940EA1160286020465AE7C3
:100E70007CB50546002400200090019000260DB1AD
:100E8000022600E000266A481430006800F0007076
:100E900008B10E207CBD6A49098888B26946FFF70F
:100EA00024FF04460CB12046F4E7019800F48020AA
:100EB00060B36348008800046049086037204860D8
:100EC000402088600020C8604FF4806008610846B8
:100ED0000AF015FC3720FFF7D8FE04460CB1204677
:100EE000D8E756480660062054494860402088608C
:100EF0000020C8604FF48060086108460AF0FFFBDC
:100F00000620FFF7C2FE04462046C3E72520C1E7BE
:100F100070B5044600254C480078032802D12725E7
:100F2000284670BD4848007838B147480078012805
:100F300003D045480078022819D1B4F5805F02D16A
:100F400027252846EDE7E0B2FFF792FF054675B981
:100F50003748001D006820F4C0503549091D08605D
:100F60000846006820430860084600680860284674
:100F7000D7E710B504463148046007202F49486080
:100F8000402088600020C8604FF4806008610846F7
:100F90000AF0B5FB0720FFF778FE10BDF0B501465B
:100FA00000200022284B1B7881F85630244B1B88E8
:100FB000A1F85430254B1B681A0E93090B70C2F32D
:100FC00083034B7002F003038B70204B1B68C3F349
:100FD0000742CA701D4B1B88C3F307220A711B4BC3
:100FE0001A784A715B681A0E1301CB80174B5B6845
:100FF000C3F30742CB8843EA1213CB8002F00F03FE
:101000000B72124B9B88C3F30722D3094B72C2F3B6
:1010100080138B72C2F34013CB72C2F300130B73B5
:1010200000234B73084B1B78C3B1074B1B780FE0B1
:10103000002C0140FF07C000100000202004002009
:101040000C00002034040020080000204C04002084
:10105000012B03D0FE4B1B78032B4FD193071B0DA5
:101060000B61FC4B1A790B6943EA82030B61F94B64
:101070009B681A0E0B6943EA92130B61C2F3C20319
:101080000B7502F007034B75F24B9B68C3F30742E5
:1010900053098B75C2F38203CB7593075B0F0B76F5
:1010A000EC4B1B89C3F307220B7E43EAD2130B766A
:1010B0000B695B1C0024C1E912340B7E9B1C0124CC
:1010C00004FA03F3DC17D1E91256A5FB037C06FBF7
:1010D00003C305FB0433C1E912730C7A0123A34057
:1010E0000B650024D1E912650B6DA6FB037C05FBA3
:1010F00003C306FB0433C1E912732EE0D44B1B7803
:10110000022B2AD1D34B1A7993069B0A0B61D14B40
:101110009B681A0E0B6943EA02230B61CD4B9B6857
:10112000C3F307420B6913430B61CA4B1B89C3F31B
:1011300007220B695B1C4FF40074A3FB04464FF4B9
:1011400080630025A4FB037C06FB03C304FB05337B
:10115000C1E912734FF400730B65C2F3801301F8F9
:10116000193F93065B0E4B70BA4B1A7A4B7843EAE1
:10117000D2134B7002F07F038B70B64BDB681A0EF4
:10118000D309CB70C2F341130B71C2F382034B71CD
:1011900093071B0F8B71AF4BDB68C3F307428B794F
:1011A00043EA92138B71C2F34013CB7100230B728D
:1011B00002F001034B72A74B9B89C3F30722D309AB
:1011C0008B72C2F38013CB72C2F340130B73C2F362
:1011D00000134B73C2F381038B7302F00303CB73D1
:1011E0009C4B1A7B53080B7401234B749A4B1B685E
:1011F0001A0ECA741939984B1B68C3F307421402BC
:10120000CC85954B1B88C3F30722CB8D1343CB852D
:10121000914B1A7814060C635B681A0E0B6B43EA49
:1012200002440C638C4B5B68C3F307420B6B43EACD
:1012300002240C63884B9B88C3F307220B6B134378
:101240000B63854B1A7934235A54834B9B681A0ECF
:1012500035235A54804B9B68C3F3074214068C63B2
:101260007D4B1B89C3F307228B6B43EA02448C63DB
:10127000794B1A7A8B6B43EA02248C63764BDB68DA
:101280001A0E8B6B13438B63734BDB68C3F30742FC
:101290003C235B5C43EA12143C235C5413071C0D93
:1012A000CC876D4B9B89C3F30722CB8F1343CB872E
:1012B000694B1A7B540840235C54012441235C543D
:1012C000F0BD70B500264FF4803505E06348046832
:1012D00004F0450000B103E0281EA5F10105F5D199
:1012E00000BF15B104F0040028B1032604200AF061
:1012F000A4FA304670BD01200AF094FA18B1012614
:1013000001200AF09AFA40F2FF500AF096FA3046AD
:10131000F0E72DE9F04105460E464FF0000805E0E4
:101320004E48076807F0450000B100E0F8E700BF4D
:1013300004200AF077FA28B104200AF07EFA03208C
:10134000BDE8F08101200AF06DFA20B101200AF019
:1013500074FA0120F4E7414824380068A84201D01B
:101360001020EDE740F2FF500AF067FA3B482038C2
:10137000046804F4604018B9200C30804046DFE770
:1013800004F4005008B11320DAE704F4804008B1F7
:101390001020D5E704F4004008B10F20D0E7404604
:1013A000CEE738B50024012000900AF0A2F910B968
:1013B0002524204638BD26480078042825D0002062
:1013C0002749086002204860C02088600020C8606B
:1013D0004FF48060086108460AF091F9FFF771FF49
:1013E00004460CB12046E5E71C48203800681A493D
:1013F00008601A481C3800684860184818380068A7
:101400008860164814380068C8601148007858B1E0
:101410000F480078012807D00D480078062803D02F
:101420000B480078022821D100200D4908600320D4
:101430004860402088600020C8604FF480600861E8
:1014400008460AF05CF969460320FFF762FF09E0ED
:10145000080000204C0400205C040020342C0140D3
:101460002004002004460CB12046A3E7FE48007883
:10147000032816D1BDF800000004FC4908600320D1
:101480004860402088600020C8604FF48060086198
:1014900008460AF034F9FFF714FF04460CB1204661
:1014A00088E7F148007804282AD0BDF80000F04908
:1014B0000860BDF800000004EC490860092048609D
:1014C000C02088600020C8604FF480600861084632
:1014D0000AF015F9FFF7F5FE04460CB1204669E75E
:1014E000E4480068E4490860E248001D006848607C
:1014F000E048083000688860DE480C300068C8604A
:10150000002057E710B506E0DA482030046804F000
:10151000450000B100E0F7E700BF04200AF082F9BF
:1015200020B104200AF089F9032010BD40F2FF50D9
:101530000AF083F90020F8E770B500264FF48035F3
:1015400006E0CC482030046804F0450000B103E018
:10155000281EA5F10105F4D100BF15B104F0040067
:1015600028B1032604200AF068F9304670BD04F063
:10157000400018B1002640200AF05FF93046F5E738
:1015800070B500254FF4803404E080200AF04AF959
:1015900000B103E0201EA4F10104F6D100BF0CB994
:1015A000032070BD40F2FF500AF047F92846F8E7E3
:1015B0002DE9F0470027002400260025A046A1467B
:1015C0007620AE4908750020086048608860C860D1
:1015D000086108460AF069F803200AF086F8A54871
:1015E0001038006840F48070A2491039086000BFCC
:1015F00012E000209D49086048608860C8604FF490
:101600008060086108460AF07AF8FFF7B9FF0446DF
:1016100004B903E0781CC7B24A2FEADB00BF14B15B
:101620002046BDE8F0874FF4D57090490860082047
:101630004860402088600020C8604FF480600861E6
:1016400008460AF05CF8FFF777FF044624B901204A
:10165000854908704FF08049002084490860372090
:101660004860402088600020C8604FF480600861B6
:1016700008460AF044F83720FFF707FB0446002C21
:101680004BD134E000207949086037204860402081
:1016900088600020C8604FF48060086108460AF046
:1016A0002EF83720FFF7F1FA04460CB12046B8E7D0
:1016B000734849EA00006D490860292048604020CD
:1016C00088600020C8604FF48060086108460AF016
:1016D00016F8FFF717FF04460CB12046A1E765484E
:1016E0000668012080EAD67080F001086D1CB8F110
:1016F000000F03D14FF6FF708542C3D34FF6FF7042
:10170000854202D31B2420468BE706F08040061E4C
:1017100032D00220544908702EE01CE05948534949
:10172000086001204860402088600020C8604FF4B5
:1017300080600861084609F0E2FFFFF7E3FE044617
:101740000CB120466DE74B480668012080EAD67050
:1017500080F001086D1CB8F1000F03D14FF6FF7047
:101760008542DBD34FF6FF70854202D31B2420460F
:1017700057E703203C490870204652E73EB5002455
:1017800000250121404808F02BFB0121C80208F088
:1017900081FB0121C80208F0D2FB4FF4F850019000
:1017A00002208DF808008DF8090000208DF80A004D
:1017B00001208DF80B0001A9344807F08FFD0420AB
:1017C000019001A9324807F089FD0C2208212F4819
:1017D00007F00FFE0C2209212C4807F00AFE0C220C
:1017E0000A212A4807F005FE0C220B21274807F0A2
:1017F00000FE0C221146254807F0FBFD0C220221B9
:10180000234807F0F6FD00214FF4006008F097FB35
:10181000FFF710FA31208DF8000000208DF801004C
:101820008DF8020001208DF80300684607F065FC82
:10183000FFF7BEFE044614B9FFF7B3FD04461CB91A
:101840001448FFF7ABFB044634B91249B1F8541001
:101850000804FFF78EFB044624B94FF40060FFF73D
:1018600057FB0446E4B117E00800002020040020E4
:101870000C000020142C01404C040020080400201F
:10188000000010800080FF800C0040000008024033
:10189000000C024070040020FE480078032812D19A
:1018A000FD4890F8560020B1FB4890F856000128FA
:1018B00001D1022500E000252846FFF7DDF90020D0
:1018C000FFF7D0F9044620463EBD10B5002009F0D0
:1018D0000CFF002010BD70B590B004460E461546B2
:1018E00000BFEE480AF0EDF80028FAD1EB4809F005
:1018F000BFFF4FF000600190E94802900394049507
:101900000020059006904FF48060079080000890BA
:101910008000099000200A904FF440300B90042082
:101920000C9003200D904FF400000E9080100F904B
:1019300001A9DA480AF03EF82021D8480AF08AF8CE
:101940000121D6480AF070F810B070BD01460020A1
:1019500002E04910421CD0B20129FAD170472DE9AA
:10196000F84F8146174698460A9C4FF0000AD34626
:101970004D464FF0FF36B9F1000F02D12620BDE8E9
:10198000F88F0020C64954390860C2480078022800
:1019900005D10402780A40EAC8574FEA68280020B7
:1019A000C04988604860401E0860012048610020EE
:1019B000C8600861084609F0CEFEB9486C38006876
:1019C00000F0007008B10E20D9E7002C21DDB4F53D
:1019D000006F1EDC601E2040D8B92046FFF7B6FF1E
:1019E0000090B14804601020AF49486040208860F2
:1019F0000020C8604FF480600861084609F07FFE4F
:101A00001020FFF742F98246BAF1000F03D050468A
:101A1000B5E72620B3E700980001A2498860084690
:101A200044604FF0FF300860012048610220C86028
:101A300000200861084609F08EFE9B4807601120CF
:101A400099494860402088600020C8604FF4806059
:101A50000861084609F053FE1120FFF716F9824687
:101A6000BAF1000F01D0504689E79048007800286D
:101A70005AD1FEF70AFC17E04FF4004009F0D2FEFD
:101A800070B14FF0000B05E08548006845F82B0069
:101A90000BF1010BBBF1080FF6D32035844E03E0A8
:101AA0000EB904206BE7761E7D484C38006840F282
:101AB0002A6108400028DFD0082009F0B3FE20B1D9
:101AC000082009F0BAFE042059E7022009F0AAFE16
:101AD00020B1022009F0B1FE022050E7202009F0D9
:101AE000A1FE20B1202009F0A8FE062047E74FF410
:101AF000007009F097FE28B14FF4007009F09DFEC8
:101B000007203CE703E06648006828602D1D4FF47D
:101B1000001009F087FE0028F5D1FEF7B8FB40F26F
:101B2000FF5009F08AFE39E060480078012835D17D
:101B30000020604908706049087060490870584882
:101B40004438006840F22A31084355494439086056
:101B500053485438006840F008005149543908602F
:101B6000002221464846FFF7B6FE00E0761E4B48AD
:101B70005838006800F0006038B95048007820B943
:101B80004C48007808B9002EF0D10EB90420F6E6D2
:101B90004848007810B1474890F800A05046EEE65B
:101BA0002DE9FF5F17469846DDE90E464FF0000924
:101BB000CA464FF0FF354249009808600020384976
:101BC0005439086033480078022805D10402780AA5
:101BD00040EAC8574FEA68280020324988604860C8
:101BE000401E0860012048610020C8600861084666
:101BF00009F0B1FD2A486C38006800F0007018B197
:101C00000E2004B0BDE8F09F002C21DDB4F5006F7C
:101C10001EDC601E2040D8B92046FFF797FE8346A1
:101C2000214804601020204948604020886000203E
:101C3000C8604FF480600861084609F060FD10201C
:101C4000FFF723F88146B9F1000F03D04846D8E7E3
:101C50002620D6E7012E6ED906FB04F0B0F1007FF6
:101C600001D32620CDE74FEA0B100E49886006FB12
:101C700004F048604FF0FF30086001204861022006
:101C8000C86000200861084609F065FD0648076045
:101C9000122017E008000020700400205864024061
:101CA000802C01403404002020040020100000207B
:101CB000FFFF7F0012000020110000201300002011
:101CC00014000020F9494860402088600020C86066
:101CD0004FF480600861084609F011FD1220FEF7FC
:101CE000D4FF8146B9F1000F01D0484689E7F0489A
:101CF000007800287ED1FEF7C8FA1EE04FF40040BD
:101D000009F090FDA0B14FF0000A07E0E948006833
:101D1000E949096841F82A000AF1010ABAF1080FF5
:101D2000F4D3E54800682030E3490860E34D04E05F
:101D300015B9042065E7AEE06D1EDE484C3800683A
:101D400040F22A3108400028D8D0082009F06AFD66
:101D500020B1082009F071FD042052E7022009F0AB
:101D600061FD20B1022009F068FD022049E7202032
:101D700009F058FD20B1202009F05FFD062040E762
:101D80004FF4007009F04EFD28B14FF4007009F0D7
:101D900054FD072035E709E0C6480068C6490968D0
:101DA0000860C5480068001DC34908604FF4001072
:101DB00009F038FD0028EFD14FF4807009F032FDB2
:101DC00020B3BF48007838B1BD480078012803D05F
:101DD000BB480078022819D10020B44908600C20C3
:101DE0004860402088600020C8604FF4806008612F
:101DF000084600E011E009F082FC0C20FEF745FFE8
:101E00008146B9F1000F01D04846FAE6FEF73FFAE5
:101E100040F2FF5009F011FD3DE0A548007801288F
:101E200039D10020A74908700120A7490870002077
:101E3000A64908709F484438006840F22A31084398
:101E40009C49443908609B485438006840F00800B9
:101E500098495439086006FB04F100220098FFF706
:101E60003AFD00E06D1E9A48006800F0006008B975
:101E7000002DF7D10DB90420C3E600BF93480078C8
:101E800018B9904800780028F8D08E48007810B132
:101E90008C4890F800904846B3E61CB504460020F4
:101EA000019000908B4800880004804908600D2054
:101EB0004860402088600020C8604FF4806008615E
:101EC000084609F01CFC7B484C380068009003E091
:101ED00078484C3800680090009800F045000028D1
:101EE000F6D0012009F09EFC20B1012009F0A5FCEC
:101EF00001201CBD042009F095FC20B1042009F04C
:101F00009CFC0320F5E76B48703800680D2801D071
:101F10001020EEE740F2FF5009F08FFC65486C3866
:101F2000006801900198C0F3432020700020E0E792
:101F30002DE9FF5F86B017469846149D00260020C5
:101F400005900490002481460390824602900195FA
:101F5000DDF818B0DDF818B0BBF1000F03D1262072
:101F60000AB0BDE8F09F00205249543908605A4930
:101F700088604860401E0860012048610020C860F9
:101F80000861084609F0E7FB4A486C38006800F031
:101F9000007008B10E20E3E749480078022805D117
:101FA0000502780A40EAC8574FEA6828002D1FDD6D
:101FB000B5F5006F1CDC681E2840C8B92846FFF73D
:101FC000C5FC05903948056010203849486040201C
:101FD00088600020C8604FF480600861084609F0FE
:101FE0008EFB1020FEF751FE06461EB13046B7E7C5
:101FF0002620B5E73748008800042C4908600D20EA
:102000004860402088600020C8604FF4806008610C
:10201000084609F074FB0D20FEF737FE06460EB1A8
:1020200030469DE723486C38006803904FF0FF343A
:102030001CE0641E2748008800041C4908600D202D
:102040004860402088600020C8604FF480600861CC
:10205000084609F054FB0D20FEF717FE06460EB1A8
:1020600030467DE713486C3800680390039800F40D
:10207000807008B9002CDCD10CB9292070E70B481E
:102080000760182009494860402088600020C86027
:102090004FF480600861084609F031FB1820FEF714
:1020A000F4FD0646D6B130465AE700002004002071
:1020B00010000020802C014014000020FFFF7F0052
:1020C0000800002012000020110000201300002052
:1020D000006402400C000020340400200020F84975
:1020E000087005980001F7498860084645604FF080
:1020F000FF300860012048610020C8600861084680
:1021000009F029FB4FF0FF34EF48007800287CD11C
:10211000FEF7BBF843E04FF4804009F083FBC8B3FF
:102120000198A0EB0900202821D20198A0EB09001A
:1021300000F0030020B90198A0EB0900800804E03A
:102140000198A0EB09008008401C02904FF0000AA3
:1021500009E0DE49DBF8000008600AF1010A0BF132
:10216000040B09F1040902988245F2D30FE04FF005
:10217000000A05E05BF82A00D44908600AF1010A68
:10218000BAF1080FF6D30BF1200B09F120096FF01B
:10219000404404E0FFE70CB90420E1E6641ECB48AC
:1021A0004C38006840F21A6108400028B3D008207B
:1021B00009F038FB20B1082009F03FFB0420CFE6EE
:1021C000022009F02FFB20B1022009F036FB02208B
:1021D000C6E6102009F026FB20B1102009F02DFBE7
:1021E0000520BDE64FF4007009F01CFB30B14FF440
:1021F000007009F022FB0720B2E606E0FEF747F880
:1022000040F2FF5009F019FB43E0AF480078012885
:102210003FD10020AE490870A9490870AD49087047
:10222000AA484438006840F21A310843A7494439A3
:102230000860402229460698FFF74DFBA348543812
:10224000006840F00800A1495439086000E0641EAD
:10225000A148006800F0006008B9002CF7D11CB953
:10226000FFF78CFA04207BE64FF0FF3400E0641E99
:102270009848007820B99648007808B9002CF6D123
:102280000CB904206CE69248007810B190480078B0
:1022900066E640F2FF5009F0D0FA04A8FFF7FDFD12
:1022A000064603E004A8FFF7F8FD06463EB99DF890
:1022B00010000728F6D09DF810000628F2D030460E
:1022C0004EE62DE9FF5F84B0DDE9124700260020CD
:1022D00003900290002580468146019007FB04FB95
:1022E000DDF810A0DDF810A0BAF1000F03D1262010
:1022F00008B0BDE8F09F0020744954390860714966
:1023000088604860401E0860012048610020C86065
:102310000861084609F01FFA6C486C38006800F044
:10232000007008B10E20E3E76C480078022808D15D
:102330000402DDE90601400A40EAC1504912CDE934
:102340000601002C1FDDB4F5006F1CDC601E204070
:10235000C8B92046FFF7FAFA0390614804601020DC
:102360005F494860402088600020C8604FF480606A
:102370000861084609F0C3F91020FEF786FC0646FE
:102380001EB13046B4E72620B2E7012F6FD907FB14
:1023900004F0B0F1007F01D32620A9E74F48007870
:1023A00038B14E480078012803D04C480078022804
:1023B0002DD14C4800880004494908603720486006
:1023C000402088600020C8604FF4806008610846A3
:1023D00009F095F93720FEF758FC06460EB1304655
:1023E00086E73F48076017203D49486040208860E5
:1023F0000020C8604FF480600861084609F07FF94A
:102400001720FEF742FC06460EB1304670E734490D
:102410000698086019204860402088600020C86045
:102420004FF480600861084609F069F91920FEF749
:102430002CFC06460EB130465AE7039800012149AC
:10244000886007FB04F048604FF0FF30086001200F
:1024500048610020C8600861084609F07CF91A4804
:102460000078002872D1451EFDF70FFF54E0F8E018
:102470004FF4804009F0D6F9B0B3ABEB0800202848
:1024800033D2ABEB080000F0030018B9ABEB080047
:10249000800803E0ABEB08008008401C01904FF07F
:1024A000000909E00949DAF80000086009F10109AA
:1024B0000AF1040A08F1040801988145F2D324E0E6
:1024C000110000203404002010000020802C014066
:1024D00012000020130000200064024008000020C9
:1024E000200400200C00002012E04FF0000905E05D
:1024F0005AF82900F749086009F10109B9F1080FF4
:10250000F6D30AF1200A08F120086FF0404503E0F5
:102510000DB90420ECE66D1EEE484C38006840F220
:102520001A3108400028A3D0082009F07BF920B117
:10253000082009F082F90420DAE6022009F072F995
:1025400028B1022009F079F90220D1E640E01020FC
:1025500009F068F920B1102009F06FF90520C7E6ED
:102560004FF4007009F05EF928B14FF4007009F0E3
:1025700064F90720BCE64FF4807009F053F900B30A
:10258000D548007838B1D4480078012803D0D24823
:102590000078022815D10020D04908600C2048603E
:1025A000402088600020C8604FF4806008610846C1
:1025B00009F0A5F80C20FEF768FB06460EB1304680
:1025C00096E6FDF764FE40F2FF5009F036F948E068
:1025D000C3480078012844D10020C2490870012076
:1025E000C14908700020C1490870BA4844380068E1
:1025F00040F21A310843B7494439086007FB04F137
:1026000040220498FFF767F9B2485438006840F058
:102610000800B049543908604FF0FF3500E06D1EE6
:10262000B348006800F0006008B9002DF7D11DB96B
:10263000FFF7A4F804205BE64FF0FF3500E06D1EC5
:10264000AA48007820B9A748007808B9002DF6D12B
:102650000DB904204CE6A348007810B1A1480078D9
:1026600046E640F2FF5009F0E8F802A8FFF715FC33
:10267000064603E002A8FFF710FC06463EB99DF8A7
:1026800008000728F6D09DF808000628F2D030464A
:102690002EE610B54FF4807009F0C4F888B3924864
:1026A0000078012814D100208C4908600C20486073
:1026B000402088600020C8604FF4806008610846B0
:1026C00009F01DF80C20FEF7E0FA8649087002E0D8
:1026D0000020844908707F484838006840F48070C2
:1026E0007C4948390860081D00684CF23A3188433B
:1026F00078494439086001207C490870794800789D
:1027000010BDFFE7022009F08DF878B1022009F032
:1027100094F87048443800684CF23A3188436D4967
:102720004439086002206F490870E9E7082009F081
:1027300079F878B1082009F080F8664844380068D4
:102740004CF23A31884363494439086004206549B2
:102750000870D5E7202009F065F878B1202009F04D
:102760006CF85C48443800684CF23A318843594967
:102770004439086006205B490870C1E7102009F061
:1027800051F878B1102009F058F8524844380068E0
:102790004CF23A3188434F49443908600520514989
:1027A0000870ADE74FF4007009F03CF880B14FF4C9
:1027B000007009F042F84748443800684CF23A315A
:1027C000884344494439086007204649087097E720
:1027D000002095E710B5FFF75CFF10BD70B504460B
:1027E000002514B92625284670BD424800880004FB
:1027F0003A4908600D204860402088600020C86089
:102800004FF480600861084608F079FF0D20FEF75C
:102810003CFA05460DB12846E6E72E486C380068BC
:1028200020602846E0E708B5002000906846FFF7E2
:10283000D5FF08B1FF2008BD0098C0F34320FAE798
:102840002DE9FE4F83460C4691460020029000265B
:1028500025462C46700240EAD5566D020BF0030067
:10286000F0B14FF0000A18E04FF4007000904FEA0A
:102870004A20471946EBE0733A461F48FFF76FF8C6
:1028800002904FF400721C4958460EF046FD0BF5BD
:10289000007B0AF1010000F0FF0ACA45E4DB16E004
:1028A000B9F1010F09D14FF400702A463346009068
:1028B0005846FFF754F8029009E04FF400702A469A
:1028C0003346CDE900095846FFF76AF902900298AD
:1028D000BDE8FE8F802C014008000020200400206D
:1028E0001000002012000020110000201300002022
:1028F000006402400C000020C80400202DE9FE4FB7
:1029000081460C46924600200290002625462C4621
:10291000700240EAD5566D0209F00300F0B14FF0A5
:10292000000B18E04FF40072494619480EF0F5FC10
:102930004FF4007000904FEA4B20471946EBE073CC
:102940003A461348FFF7F4FA029009F500790BF1C3
:10295000010000F0FF0BD345E4DB16E0BAF1010FF4
:1029600009D14FF400702A46334600904846FFF7DD
:10297000DFFA029009E04FF400702A463346CDE9B1
:10298000000A4846FFF79DFC02900298BDE8FE8FC2
:10299000C8040020704700BFFEE700BFFEE700BF8D
:1029A000FEE700BFFEE7704770477047704710B5FD
:1029B0004FF4807009F0A4F901280ED100200949D4
:1029C000086001200849C1F89C020849C1F8A40226
:1029D00007480078401C064908704FF4807009F0E1
:1029E0009AF910BD9C824042008040420000434260
:1029F000180000200CB50020019000907648006877
:102A000040F480307449086000BF7348006800F4E7
:102A1000003000900198401C0190009818B901986E
:102A2000B0F5A04FF1D16C48006800F4003010B14F
:102A30000120009001E0002000900098012846D17C
:102A400065484030006840F080506349403108607C
:102A50006248006840F44040604908605E480830C1
:102A600000685D49083108600846006840F400408D
:102A700008600846006840F4A05008605848091FE4
:102A80000860081F006840F08070091F086000BFE0
:102A90005148006800F000700028F9D040F205703D
:102AA000504908604C480830006820F003004A494B
:102AB000083108600846006840F00200086000BF66
:102AC00045480830006800F00C000828F8D10CBD1B
:102AD00010B54548006840F47000434908603E481E
:102AE000006840F001003C49086000203A49083184
:102AF0000860394800683D490840374908603C484B
:102B0000091D0860081F006820F48020091F086064
:102B1000002031490C310860FFF76CFF4FF0006076
:102B200031498039086010BD70B5002000220223B1
:102B300000240221284D08352D6805F00C0020B135
:102B4000042806D0082834D107E02A4D2A4E3560E3
:102B500033E02A4D284E35602FE01F4D2D1D2D6886
:102B6000C5F380541C4D2D1D2D6805F03F0154B157
:102B7000224DB5FBF1F5184E361D3668C6F38816A2
:102B800005FB06F209E01B4DB5FBF1F5124E361DB3
:102B90003668C6F3881605FB06F20F4D2D1D2D680D
:102BA000C5F301456D1C6B00B2FBF3F5124E3560A9
:102BB00003E0104D104E356000BF00BF064D0835D4
:102BC0002D68C5F303150E4E705D0B4D2D68C54085
:102BD000094E356070BD00000038024000700040B2
:102BE00008544007003C024088ED00E0FFFFF6FE7D
:102BF000103000240024F4001C00002000127A0091
:102C00002000002001B5BDF800000090BDF80000D4
:102C1000F849088008BD01B5BDF800000090BDF876
:102C20000000F449891C088008BD08B5F148801CE3
:102C300000880090BDF8000008BDEE4A10804FF0FB
:102C4000D842A2F88010704710B504462046FFF71E
:102C5000D9FF052006F020F9FFF7E7FF10BDE64891
:102C60000089E44908807047E249891C0880704760
:102C700030B5014601F01F04C1F34513CA0AE5024D
:102C800005EB43151544A8B230BD00BF011EA0F1ED
:102C90000102D0B2FAD1704730B504460D46D6488D
:102CA000808849F24131884205D0D348808845F276
:102CB0001031884214D1D0494889FFF7A3FF201270
:102CC000FFF7A9FFE0B2FFF7A6FFCB498889FFF71E
:102CD00099FF2812FFF79FFFE8B2FFF79CFFABE0D8
:102CE000C548808846F6040188421DD1C2488079D3
:102CF000012804D1C0480088401E001B84B2BE4990
:102D00004889FFF77FFF2012FFF785FFE0B2FFF74A
:102D100082FFB9498889FFF775FF2812FFF77BFF0B
:102D2000E8B2FFF778FF87E0B348808841F6631187
:102D3000884247D1B0488079A8B9AF480088401E82
:102D4000001B84B2AC494889FFF75CFF0020FFF705
:102D500062FF0020FFF75FFF2012FFF75CFFE0B289
:102D6000FFF759FF16E0A4494889FFF74BFF2012EF
:102D7000FFF751FFE0B2FFF74EFF9F490988491E58
:102D8000C1F30F20FFF747FF9B490978491EC8B2DE
:102D9000FFF741FF98498889FFF734FF2812FFF7B2
:102DA0003AFFE8B2FFF737FF93494988491EC1F35C
:102DB0000F20FFF730FF90498978491EC8B2FFF70E
:102DC0002AFF39E08C48808845F21051884220D192
:102DD00089494889FFF716FF2012FFF71CFF864933
:102DE0004989491C88B2FFF70DFFE0B2FFF713FFD6
:102DF00081498889FFF706FF2812FFF70CFF7E49FB
:102E00008989491C88B2FFF7FDFEE8B2FFF703FF8E
:102E100012E079488079012804D177480088401E63
:102E2000001B84B2744948892146FFF706FF7249A6
:102E300088892946FFF701FF30BD2DE9F04105469D
:102E40000E4600240027A0466B480088A84203DDF8
:102E500069484088B04202DC0020BDE8F08131467C
:102E60002846FFF719FF6448808849F241318842BB
:102E700011D06148808846F6040188420BD05E4834
:102E8000808845F21031884205D05B48808841F641
:102E90006311884203D12E20FFF7B4FE0DE056489F
:102EA000808845F21051884204D14FF43850FFF722
:102EB000A9FE02E02220FFF7A5FE4F48808849F2D4
:102EC0002031884202D10220FFF7DFFEFFF7ADFE7E
:102ED00004464948808841F66311884201D1204662
:102EE000BBE70220FFF7D1FEFFF79FFE04464248F2
:102EF000808849F2413188420BD03F48808845F2B2
:102F00001031884205D03C48808845F210518842F3
:102F10000AD10220FFF7B9FEFFF787FE8046E7B22D
:102F20004FF6FF7000EA07273348808849F22531C1
:102F3000884216D03048808844F23551884210D0FB
:102F40002D488088091F88420BD02B4880884BF27F
:102F50000551884205D0284880884CF205518842A6
:102F600001D1204679E72448808849F241318842DE
:102F70000BD02148808845F21031884205D01E4888
:102F8000808845F21051884207D1E012C002B91280
:102F900040EA411040EAE8205FE72046FFF768FE7C
:102FA0005BE700B51448808849F24131884211D06E
:102FB0001148808846F6040188420BD00E4880886C
:102FC00045F21031884205D00B48808841F66311E4
:102FD000884203D12920FFF715FE14E006488088B7
:102FE00045F21051884209D14FF42450FFF70AFEF0
:102FF00009E000007E00006CC806002040F273115A
:103000000720FFF71AFE00BD00B5FD48808849F291
:103010004131884211D0FA48808846F6040188423E
:103020000BD0F748808845F21031884205D0F4482B
:10303000808841F66311884203D12820FFF7E2FD22
:103040000EE0EF48808845F21051884204D14FF4D9
:103050002050FFF7D7FD03E000210720FFF7EDFD2B
:1030600000BDF0B5054600240027E5488079012819
:103070000BD1E348808846F60401884205D0E04839
:10308000808841F66311884208D1DD488079F0B923
:10309000DB48808841F66311884218D1082D15D28B
:1030A000DFE805F00406080A0C0E101206250DE0F4
:1030B00007250BE0042509E0052507E0012505E0CB
:1030C000002503E0032501E0022500BF00BFCC4836
:1030D000808849F24131884217D0C948808846F635
:1030E0000401884211D0C648808845F210318842D8
:1030F0000BD0C348808845F21051884205D0C048A3
:10310000808841F6631188427ED1082D1CD2DFE809
:1031100005F00406090C0F12151800BF14E044F066
:10312000800411E044F040040EE044F0C0040BE0E1
:1031300044F0200408E044F0600405E044F0A004FA
:1031400002E044F0E00400BF00BFAD48808845F2D3
:103150001051884202D14FF4585700E03627A84852
:10316000808845F2103188420DD0A548808845F20C
:103170001051884207D0A248808841F663118842E6
:1031800001D044F008049E48808846F60401884235
:1031900001D144F0020421463846FFF74EFD98481D
:1031A000808841F6631188421DD004F0200068B188
:1031B0009348008892494988884214DA90480688E2
:1031C00040888F490880084646800CE08C4800887B
:1031D0008B494988884206DD8948068840888849A5
:1031E0000880084646808648808845F2105188420B
:1031F00054D183494889FFF705FD0020FFF70BFDF7
:103200007F494989491C00E077E088B2FFF7FAFC62
:103210000020FFF700FD7A494989891C88B2FFF731
:10322000F1FC77490988491EC1F30F20FFF7F3FC31
:1032300073494989C91C88B2FFF7E4FC70490978D1
:10324000491EC8B2FFF7E7FC6D498889FFF7DAFC31
:103250000020FFF7E0FC6A498989491C88B2FFF722
:10326000D1FC0020FFF7D7FC65498989891C88B209
:10327000FFF7C8FC62494988491EC1F30F20FFF7D8
:10328000CAFC5F498989C91C88B2FFF7BBFC5C494D
:103290008978491EC8B2FFF7BEFC55E058494889F5
:1032A000FFF7B0FC0020FFF7B6FC0020FFF7B3FCEF
:1032B00053490988491EC1F30F20FFF7ACFC504960
:1032C0000978491EC8B2FFF7A6FC4D498889FFF767
:1032D00099FC0020FFF79FFC0020FFF79CFC484969
:1032E0004988491EC1F30F20FFF795FC44498978AE
:1032F000491EC8B2FFF78FFC26E0082D1CD2DFE87C
:1033000005F004070A0D0F12151844F0300413E0FD
:1033100044F0100410E044F020040DE000BF0BE086
:1033200044F0380408E044F0280405E044F01804B0
:1033300002E044F0080400BF00BF032744F48054B7
:1033400021463846FFF779FCF0BD30B504460D46FE
:1033500029462046FFF7A0FCFFF781FC294800889A
:103360002949088030BD70B504460D4616462448EC
:10337000808849F24131884205D02148808845F251
:103380001031884214D11E494889FFF73BFC2012B6
:10339000FFF741FCE0B2FFF73EFC19498889FFF7CF
:1033A00031FC2812FFF737FCE8B2FFF734FC93E05A
:1033B0001348808845F21051884227D11049488926
:1033C000FFF720FC2012FFF726FC0D494989491C14
:1033D00088B2FFF717FCE0B2FFF71DFC08498889A7
:1033E000FFF710FC2812FFF716FC05498989491CD4
:1033F00088B2FFF707FCE8B2FFF70DFC6CE00000B5
:10340000C8060020300000208000006CFE48808844
:1034100041F66311884228D1FB48807920B9FA48E7
:103420000088401E001B84B2F7494889FFF7EAFB79
:103430002012FFF7F0FBE0B2FFF7EDFB2012FFF7E1
:10344000EAFBE0B2FFF7E7FBEF498889FFF7DAFB19
:103450002812FFF7E0FBE8B2FFF7DDFB2812FFF7C9
:10346000DAFBE8B2FFF7D7FB36E0E748808846F69C
:10347000040188421DD1E4488079012804D1E24842
:103480000088401E001B84B2DF494889FFF7BAFB61
:103490002012FFF7C0FBE0B2FFF7BDFBDA498889D5
:1034A000FFF7B0FB2812FFF7B6FBE8B2FFF7B3FB5C
:1034B00012E0D5488079012804D1D3480088401E05
:1034C000001B84B2D04948892146FFF7B6FBCE499C
:1034D00088892946FFF7B1FBCB480089CB49088092
:1034E0004FF0D840A0F8806070BD70B52DED048B12
:1034F0000446BE20FFF786FB0520FFF78CFB204625
:103500000EF001F941EC190B9FEDC10B53EC102BA0
:103510000EF00CF941EC180B0EF0C8F885B22846F5
:10352000FFF779FB0120FFF776FBFF20FFF773FB26
:103530000020FFF770FB0020FFF76DFBBDEC048B54
:1035400070BD10B50446002C66D1AF498871F020DB
:1035500008804FF4A07048800846808849F24131C5
:1035600088420BD0A848808846F60401884205D0DE
:10357000A548808845F2103188421AD12C20A249F2
:1035800008812A2048812B2088810846808846F6B9
:103590000401884205D09C48808845F21031884259
:1035A00006D14FF4A070984908804FF4F07048801D
:1035B000A1E09548808845F21051884210D14FF41F
:1035C0003050914908814FF4285048814FF42C50D5
:1035D00088814FF4F07008804FF4487048808AE08A
:1035E0008948808841F6631188420DD12C20864994
:1035F00008812B2048812A2088814FF4F0700880B0
:103600004FF44870488076E022207F4908812020CE
:103610004881212088816EE001207B4988714FF428
:10362000A0700880F02048800846808849F2413127
:10363000884205D07448808845F21031884207D10D
:103640002C20714908812A2048812B2088813FE065
:103650006D48808846F60401884207D12C206A49CB
:1036600008812B2048812A20888131E066488088A3
:1036700045F21051884210D14FF430506249088110
:103680004FF4285048814FF42C5088814FF44870F3
:1036900008804FF4F07048801AE05B48808841F65B
:1036A000631188420DD12C20574908812A20488176
:1036B0002B2088814FF4487008804FF4F0704880C8
:1036C00006E022205049088121204881202088815D
:1036D0004D48808846F60401884205D04A488088D3
:1036E00045F21031884206D14FF4F0704649088007
:1036F0004FF4A07048800020FFF7B3FC10BD2DE907
:10370000F04F86B004460D469046994604EB0800FB
:10371000401E86B205EB0900401E87B23A488088F9
:1037200049F24131884215D03748808845F210313E
:1037300088420FD03448808846F60401884209D078
:1037400031488079012826D12F48808841F66311BD
:10375000884220D12C494889FFF754FA2012FFF7FC
:103760005AFAE0B2FFF757FA3012FFF754FAF0B204
:10377000FFF751FA24498889FFF744FA2812FFF726
:103780004AFAE8B2FFF747FA3812FFF744FAF8B2FC
:10379000FFF741FAC1E01C48808841F66311884276
:1037A0003DD119480088A0EB0800001B84B205EB4E
:1037B0000900401E1FFA80F913494889FFF722FAD1
:1037C0002012FFF728FAE0B2FFF725FA04EB080110
:1037D000491EC1F30F20FFF71EFA04EB0801491E32
:1037E000C8B2FFF718FA08498889FFF70BFA2812C0
:1037F000FFF711FAE8B2FFF70EFA4FEA2920FFF7B8
:103800000AFA09F0FF0007E0C80600207E00006CFD
:103810006666666666660440FFF7FDF97DE0FE4871
:10382000808845F21051884244D1FB494889FFF70E
:10383000E9F92012FFF7EFF9F7494989491C88B2E5
:10384000FFF7E0F9E0B2FFF7E6F9F3494989891C8F
:1038500088B2FFF7D7F93012FFF7DDF9EE49498951
:10386000C91C88B2FFF7CEF9F0B2FFF7D4F9EA49E4
:103870008889FFF7C7F92812FFF7CDF9E64989894A
:10388000491C88B2FFF7BEF9E8B2FFF7C4F9E24974
:103890008989891C88B2FFF7B5F93812FFF7BBF99F
:1038A000DD498989C91C88B2FFF7ACF9F8B2FFF786
:1038B000B2F932E0D848807901280ED1AA46BB4639
:1038C000D5480088801B401E80B20190D2480088F5
:1038D000001B401E80B2009003E0A246B346019553
:1038E00000975020059051200490522003905320BF
:1038F000029051460598FFF7A0F959460498FFF742
:103900009CF901990398FFF798F900990298FFF73D
:1039100094F929462046FFF7BFF906B0BDE8F08FBD
:1039200070B504460026BC48058840884543BA481F
:10393000808846F60401884216D1B748807901286C
:1039400012D10020B44988712A2048812B20888117
:1039500000210846FFF7A0F90120AF4988712B200C
:1039600048812A20888103E000210846FFF794F966
:10397000FFF775F9002602E0A8480480761CAE42E5
:10398000FAD370BD00B5A1B00020209001217A20AB
:1039900006F026FA0121084606F05AFA4FF40040D4
:1039A0001E9001208DF87C0000208DF87E00022002
:1039B0008DF87D0001208DF87F001EA9984805F044
:1039C0008DFC4CF233701E9002208DF87C0000209C
:1039D0008DF87E0003208DF87D0001208DF87F009A
:1039E0001EA9904805F07AFC4FF680701E900220C8
:1039F0008DF87C0000208DF87E0003208DF87D007E
:103A000001208DF87F001EA9874805F067FC4FF460
:103A100080501E9002208DF87C0000208DF87E00E2
:103A200003208DF87D0001208DF87F001EA97F48BE
:103A300005F054FC4FF480501E9002208DF87C005D
:103A400000208DF87E0003208DF87D0001208DF888
:103A50007F001EA9764805F041FC0C220021714828
:103A600005F0C7FC0C2201216E4805F0C2FC0C22B7
:103A700004216C4805F0BDFC0C220521694805F0C5
:103A8000B8FC0C220821674805F0B3FC0C22092180
:103A9000644805F0AEFC0C220A21624805F0A9FC3E
:103AA0000C220E215F4805F0A4FC0C220F215D487A
:103AB00005F09FFC0C2207215B4805F09AFC0C22C4
:103AC0000821594805F095FC0C220921564805F0BB
:103AD00090FC0C220A21544805F08BFC0C220B218F
:103AE000514805F086FC0C2211464F4805F081FC38
:103AF0000C220D214C4805F07CFC0C220E214A487A
:103B000005F077FC0C220F21474805F072FC0C22CF
:103B10001146464805F06DFC0C221146444805F05C
:103B200068FC0F200890002009903C200A9000209B
:103B30000B900C900D900E900920019000200290A7
:103B4000082003900020049005900690079006201E
:103B50000F900020109011901020129000201390D0
:103B600015901490169017904FF4805018900020E4
:103B700019904FF480401A9000201B9008A81C90C8
:103B800001A81D900FA805F088FC0121062005F072
:103B90000FFD322005F0C8F901210020FFF74DF894
:103BA000322005F0C1F90020FFF74EF81A4988804D
:103BB00008468088FF280ADB084680884FF6FF7198
:103BC000884204D014488088B0F5134F7ED1D320AA
:103BD000FFF718F8FFF729F80F498880FFF725F855
:103BE0000D498880FFF721F80B49888008468088B6
:103BF0004FF6FF7101EA002007498880FFF715F8AA
:103C0000054989880843044988800846808849F224
:103C1000413188425AD00DE0C80600208000006C77
:103C200000040240000C0240001002400014024058
:103C300000180240BF20FEF7E5FFFEF7F6FFFE4941
:103C40008880FEF7F2FFFC498880FEF7EEFFFA4914
:103C50008880FEF7EAFFF8498880084680884FF69A
:103C6000FF7101EA0020F4498880FEF7DEFFF24987
:103C700089880843F04988800846808846F6040110
:103C800088427AD0D420FEF7BDFFFEF7CEFFEA4986
:103C90008880FEF7CAFFE8498880FEF7C6FFE6493C
:103CA0008880084680884FF6FF7101EA0020E249CB
:103CB0008880FEF7BAFFE04989880843DE4988809A
:103CC0000846808845F21031884200E055E054D023
:103CD0004FF45A40FEF796FFFEF7A7FFD6498880BB
:103CE0004FF45B40FEF78EFFFEF79FFFD2498880BE
:103CF000084680884FF6FF7101EA0020CE4988808F
:103D00004FF45C40FEF77EFFFEF78FFFCA498988BB
:103D10000843C949888008468088B0F5004F02D121
:103D200045F210508880C448808845F2105188427E
:103D300023D0A120FEF766FFFEF777FFBE498880FB
:103D4000FEF773FFBC498880084680884FF6FF71F4
:103D500001EA0020B8498880FEF767FFB6498988E4
:103D60000843B54988800846808845F261718842D9
:103D700003D141F66310B0498880AF48808849F28A
:103D80004131884211D0AC48808845F210318842D8
:103D90000BD0A948808845F21051884205D0A6482A
:103DA000808841F6631188421DD1A448006820F044
:103DB0000F004FF02041C1F81C010846D0F81C014B
:103DC00020F47060C1F81C010846D0F81C0140F0D6
:103DD0000300C1F81C010846D0F81C0140F4007033
:103DE000C1F81C0128E09448808846F60401884206
:103DF00005D0914880884CF2055188421CD18F48EB
:103E0000006820F00F004FF02041C1F81C01084667
:103E1000D0F81C0120F47060C1F81C010846D0F8ED
:103E20001C0140F00A00C1F81C010846D0F81C0132
:103E300040F44060C1F81C017F48818880A00DF0EB
:103E4000C5F87D48808849F2413188427ED1CF2033
:103E5000FEF7D8FE0020FEF7DEFEC120FEF7DBFEF7
:103E60003020FEF7D8FEED20FEF7CCFE6420FEF7F2
:103E7000D2FE0320FEF7CFFE1220FEF7CCFE8120FB
:103E8000FEF7C9FEE820FEF7BDFE8520FEF7C3FE63
:103E90001020FEF7C0FE7A20FEF7BDFECB20FEF715
:103EA000B1FE3920FEF7B7FE2C20FEF7B4FE00204D
:103EB000FEF7B1FE3420FEF7AEFE0220FEF7ABFEA9
:103EC000F720FEF79FFE2020FEF7A5FEEA20FEF772
:103ED00099FE0020FEF79FFE0020FEF79CFEC0200A
:103EE000FEF790FE1B20FEF796FEC120FEF78AFE2D
:103EF0000120FEF790FEC520FEF784FE3020FEF77D
:103F00008AFE3020FEF787FEC720FEF77BFEB72033
:103F1000FEF781FE3620FEF775FE4820FEF77BFE99
:103F20003A20FEF76FFE5520FEF775FEB120FEF732
:103F300069FE0020FEF76FFE1A20FEF76CFEB62029
:103F4000FEF760FE0A20FEF766FE00E0A5E0A22074
:103F5000FEF761FEF220FEF755FE0020FEF75BFE45
:103F60002620FEF74FFE0120FEF755FEE020FEF76B
:103F700049FE0F20FEF74FFE2A20FEF74CFE2820B8
:103F8000FEF749FE0820FEF746FE0E20FEF743FE30
:103F90000820FEF740FE5420FEF73DFEA920FEF764
:103FA0003AFE4320FEF737FE0A20FEF734FE0F20CC
:103FB000FEF731FE0020FEF72EFE0020FEF72BFE5E
:103FC0000020FEF728FE0020FEF725FEE120FEF788
:103FD00019FE0020FEF71FFE1520FEF71CFE17201D
:103FE000FEF719FE0720FEF716FE1120FEF713FE5E
:103FF0000620FEF710FE2B20FEF70DFE5620FEF7E2
:104000000AFE3C20FEF707FE0520FEF704FE102006
:10401000FEF701FE0F20FEF7FEFD3F20FEF7FBFD41
:104020003F20FEF7F8FD0F20FEF7F5FD2B20FEF7F1
:10403000E9FD00200CE00000C80600201C0100A0E3
:10404000204C43442049443A25780D0A00000000E2
:10405000FEF7E1FD0020FEF7DEFD0120FEF7DBFDAF
:104060003F20FEF7D8FD2A20FEF7CCFD0020FEF70A
:10407000D2FD0020FEF7CFFD0020FEF7CCFDEF20A3
:10408000FEF7C9FD1120FEF7BDFD782004F04CFFBE
:104090002920FEF7B7FD03F01DB9FE48808846F6DB
:1040A000040188427ED11120FEF7ACFD142004F0FB
:1040B0003BFFD020FEF7A6FD0720FEF7ACFD422017
:1040C000FEF7A9FD1D20FEF7A6FDD120FEF79AFD03
:1040D0000020FEF7A0FD1A20FEF79DFD0920FEF747
:1040E0009AFDD220FEF78EFD0120FEF794FD2220DE
:1040F000FEF791FDC020FEF785FD1020FEF78BFD39
:104100003B20FEF788FD0020FEF785FD0220FEF72C
:1041100082FD1120FEF77FFDC520FEF773FD032011
:10412000FEF779FDC820FEF76DFD0020FEF773FD58
:104130002520FEF770FD2120FEF76DFD0520FEF71E
:104140006AFD0020FEF767FD0A20FEF764FD65208A
:10415000FEF761FD2520FEF75EFD7720FEF75BFD93
:104160005020FEF758FD0F20FEF755FD0020FEF70A
:1041700052FDF820FEF746FD0120FEF74CFDFE2023
:10418000FEF740FD0020FEF746FD0220FEF743FD4E
:104190002020FEF737FD3620FEF734FD0820FEF71D
:1041A0003AFD00E02AE03A20FEF72CFD5520FEF70C
:1041B00032FD2B20FEF726FD0020FEF72CFD00200F
:1041C000FEF729FD0120FEF726FD3F20FEF723FD27
:1041D0002A20FEF717FD0020FEF71DFD0020FEF748
:1041E0001AFD0120FEF717FDDF20FEF714FD7820F1
:1041F00004F09AFE2920FEF705FD4CE7A5488088CB
:1042000045F21031884240F07C87ED20FEF7FAFC41
:104210000120FEF700FDFE20FEF7FDFCEE20FEF77C
:10422000F1FCDE20FEF7F7FC2120FEF7F4FCF12084
:10423000FEF7E8FC0120FEF7EEFCDF20FEF7E2FCD3
:104240001020FEF7E8FCC420FEF7DCFC8F20FEF710
:10425000E2FCC620FEF7D6FC0020FEF7DCFCE220E4
:10426000FEF7D9FCE220FEF7D6FCE220FEF7D3FCF5
:10427000BF20FEF7C7FCAA20FEF7CDFCB020FEF75A
:10428000C1FC0D20FEF7C7FC0020FEF7C4FC0D208A
:10429000FEF7C1FC0020FEF7BEFC1120FEF7BBFCC0
:1042A0000020FEF7B8FC1920FEF7B5FC0020FEF751
:1042B000B2FC2120FEF7AFFC0020FEF7ACFC2D2065
:1042C000FEF7A9FC0020FEF7A6FC3D20FEF7A3FCAC
:1042D0000020FEF7A0FC5D20FEF79DFC0020FEF70D
:1042E0009AFC5D20FEF797FC0020FEF794FCB120BD
:1042F000FEF788FC8020FEF78EFC0020FEF78BFC8A
:104300008B20FEF788FC0020FEF785FC9620FEF748
:1043100082FC0020FEF77FFCB220FEF773FC002039
:10432000FEF779FC0020FEF776FC0220FEF773FC16
:104330000020FEF770FC0320FEF76DFC0020FEF766
:104340006AFCB320FEF75EFC0020FEF764FC002050
:10435000FEF761FC0020FEF75EFC0020FEF75BFC30
:104360000020FEF758FC0020FEF755FC0020FEF769
:1043700052FC0020FEF74FFC0020FEF74CFC002012
:10438000FEF749FC0020FEF746FC0020FEF743FC48
:104390000020FEF740FC0020FEF73DFC0020FEF769
:1043A0003AFC0020FEF737FC0020FEF734FC00202A
:1043B000FEF731FC0020FEF72EFC0020FEF72BFC60
:1043C0000020FEF728FC0020FEF725FC0020FEF769
:1043D00022FC0020FEF71FFCB420FEF713FC8B200C
:1043E000FEF719FC0020FEF716FC9620FEF713FCE2
:1043F0000020FEF710FCA120FEF70DFC0020FEF7C8
:104400000AFCB520FEF7FEFB0220FEF704FC0020AC
:10441000FEF701FC0320FEF7FEFB0020FEF7FBFB8E
:104420000420FEF7F8FB0020FEF7F5FBB620FEF7B0
:10443000E9FB0020FEF7EFFB0020FEF7ECFBB720C6
:10444000FEF7E0FB0020FEF7E6FB0020FEF7E3FBB3
:104450003F20FEF7E0FB0020FEF7DDFB5E20FEF7CD
:10446000DAFB0020FEF7D7FB6420FEF7D4FB002028
:10447000FEF7D1FB8C20FEF7CEFB0020FEF7CBFB36
:10448000AC20FEF7C8FB0020FEF7C5FBDC20FEF7E2
:10449000C2FB01E0C80600200020FEF7BCFB702034
:1044A000FEF7B9FB0020FEF7B6FB9020FEF7B3FB4A
:1044B0000020FEF7B0FBEB20FEF7ADFB0020FEF77F
:1044C000AAFBDC20FEF7A7FB0020FEF7A4FBB82028
:1044D000FEF798FB0020FEF79EFB0020FEF79BFBFB
:1044E0000020FEF798FB0020FEF795FB0020FEF76A
:1044F00092FB0020FEF78FFB0020FEF78CFB0020D4
:10450000FEF789FBBA20FEF77DFB2420FEF783FB34
:104510000020FEF780FB0020FEF77DFB0020FEF769
:104520007AFBC120FEF76EFB2020FEF774FB002013
:10453000FEF771FB5420FEF76EFB0020FEF76BFBCD
:10454000FF20FEF768FB0020FEF765FBC220FEF7A8
:1045500059FB0A20FEF75FFB0020FEF75CFB0420FE
:10456000FEF759FB0020FEF756FBC320FEF74AFB7F
:104570003C20FEF750FB0020FEF74DFB3A20FEF7F3
:104580004AFB0020FEF747FB3920FEF744FB0020E2
:10459000FEF741FB3720FEF73EFB0020FEF73BFB1A
:1045A0003C20FEF738FB0020FEF735FB3620FEF7F7
:1045B00032FB0020FEF72FFB3220FEF72CFB002001
:1045C000FEF729FB2F20FEF726FB0020FEF723FB3A
:1045D0002C20FEF720FB0020FEF71DFB2920FEF714
:1045E0001AFB0020FEF717FB2620FEF714FB002025
:1045F000FEF711FB2420FEF70EFB0020FEF70BFB5D
:104600002420FEF708FB0020FEF705FB2320FEF721
:1046100002FB0020FEF7FFFA3C20FEF7FCFA002028
:10462000FEF7F9FA3620FEF7F6FA0020FEF7F3FA65
:104630003220FEF7F0FA0020FEF7EDFA2F20FEF709
:10464000EAFA0020FEF7E7FA2C20FEF7E4FA002051
:10465000FEF7E1FA2920FEF7DEFA0020FEF7DBFA8A
:104660002620FEF7D8FA0020FEF7D5FA2420FEF720
:10467000D2FA0020FEF7CFFA2420FEF7CCFA002071
:10468000FEF7C9FA2320FEF7C6FA0020FEF7C3FAA8
:10469000C420FEF7B7FA6220FEF7BDFA0020FEF74D
:1046A000BAFA0520FEF7B7FA0020FEF7B4FA842024
:1046B000FEF7B1FA0020FEF7AEFAF020FEF7ABFAF3
:1046C0000020FEF7A8FA1820FEF7A5FA0020FEF752
:1046D000A2FAA420FEF79FFA0020FEF79CFA182009
:1046E000FEF799FA0020FEF796FA5020FEF793FAAB
:1046F0000020FEF790FA0C20FEF78DFA0020FEF75E
:104700008AFA1720FEF787FA0020FEF784FA952030
:10471000FEF781FA0020FEF77EFAF320FEF77BFA1F
:104720000020FEF778FAE620FEF775FA0020FEF783
:1047300072FAC520FEF766FA3220FEF76CFA002006
:10474000FEF769FA4420FEF766FA0020FEF763FAE6
:104750006520FEF760FA0020FEF75DFA7620FEF78E
:104760005AFA0020FEF757FA8820FEF754FA002084
:10477000FEF751FAC620FEF745FA2020FEF74BFA65
:104780000020FEF748FA1720FEF745FA0020FEF752
:1047900042FA0120FEF73FFA0020FEF73CFAC7205C
:1047A000FEF730FA0020FEF736FA0020FEF733FA63
:1047B0000020FEF730FA0020FEF72DFAC820FEF7A1
:1047C00021FA0020FEF727FA0020FEF724FA002045
:1047D000FEF721FA0020FEF71EFAC920FEF712FAB2
:1047E0000020FEF718FA0020FEF715FA0020FEF769
:1047F00012FA0020FEF70FFA0020FEF70CFA002054
:10480000FEF709FA0020FEF706FA0020FEF703FA89
:104810000020FEF700FA0020FEF7FDF90020FEF769
:10482000FAF90020FEF7F7F90020FEF7F4F900206E
:10483000FEF7F1F90020FEF7EEF90020FEF7EBF9A4
:10484000E020FEF7DFF91620FEF7E5F90020FEF77D
:10485000E2F91C20FEF7DFF90020FEF7DCF9212049
:10486000FEF7D9F90020FEF7D6F93620FEF7D3F986
:104870000020FEF7D0F94620FEF7CDF90020FEF724
:10488000CAF95220FEF7C7F90020FEF7C4F96420E8
:10489000FEF7C1F90020FEF7BEF97A20FEF7BBF95A
:1048A0000020FEF7B8F98B20FEF7B5F90020FEF7DF
:1048B000B2F99920FEF7AFF90020FEF7ACF9A82075
:1048C000FEF7A9F90020FEF7A6F9B920FEF7A3F933
:1048D0000020FEF7A0F9C420FEF79DF90020FEF7A6
:1048E0009AF9CA20FEF797F90020FEF794F9D22032
:1048F000FEF791F90020FEF78EF9D920FEF78BF92B
:104900000020FEF788F9E020FEF785F90020FEF789
:1049100082F9F320FEF77FF90020FEF77CF9E12011
:10492000FEF770F91620FEF776F90020FEF773F90E
:104930001C20FEF770F90020FEF76DF92220FEF72B
:104940006AF90020FEF767F93620FEF764F90020C7
:10495000FEF761F94520FEF75EF90020FEF75BF9EE
:104960005220FEF758F90020FEF755F96420FEF7B3
:1049700052F90020FEF74FF97A20FEF74CF900209B
:10498000FEF749F98B20FEF746F90020FEF743F9C0
:104990009920FEF740F90020FEF73DF9A820FEF728
:1049A0003AF90020FEF737F9B920FEF734F9002074
:1049B000FEF731F9C420FEF72EF90020FEF72BF99F
:1049C000CA20FEF728F90020FEF725F9D220FEF7CD
:1049D00022F90020FEF71FF9D820FEF71CF900206D
:1049E000FEF719F9E020FEF716F90020FEF713F99B
:1049F000F320FEF710F90020FEF70DF9E220FEF794
:104A000001F90520FEF707F90020FEF704F90B2055
:104A1000FEF701F90020FEF7FEF81B20FEF7FBF879
:104A20000020FEF7F8F83420FEF7F5F80020FEF736
:104A3000F2F84420FEF7EFF80020FEF7ECF84F20E4
:104A4000FEF7E9F80020FEF7E6F86120FEF7E3F84C
:104A50000020FEF7E0F87920FEF7DDF80020FEF7F1
:104A6000DAF88820FEF7D7F80020FEF7D4F8972070
:104A7000FEF7D1F80020FEF7CEF8A620FEF7CBF81F
:104A80000020FEF7C8F8B720FEF7C5F80020FEF7B3
:104A9000C2F8C220FEF7BFF80020FEF7BCF8C7201E
:104AA000FEF7B9F80020FEF7B6F8D120FEF7B3F80C
:104AB0000020FEF7B0F8D620FEF7ADF80020FEF794
:104AC000AAF8DD20FEF7A7F80020FEF7A4F8F320EF
:104AD000FEF7A1F80020FEF79EF8E320FEF792F81B
:104AE0000520FEF798F80020FEF795F80A20FEF75B
:104AF00092F80020FEF78FF81C20FEF78CF80020BB
:104B0000FEF789F83320FEF786F80020FEF783F8D9
:104B10004420FEF780F80020FEF77DF85020FEF7D5
:104B20007AF80020FEF777F86220FEF774F800208C
:104B3000FEF771F87820FEF76EF80020FEF76BF8AC
:104B40008820FEF768F80020FEF765F89720FEF74A
:104B500062F80020FEF75FF8A620FEF75CF8002060
:104B6000FEF759F8B720FEF756F80020FEF753F885
:104B7000C220FEF750F80020FEF74DF8C720FEF7E0
:104B80004AF80020FEF747F8D120FEF744F800204D
:104B9000FEF741F8D520FEF73EF80020FEF73BF87F
:104BA000DD20FEF738F80020FEF735F8F320FEF799
:104BB00032F80020FEF72FF8E420FEF723F801205A
:104BC000FEF729F80020FEF726F80120FEF723F86B
:104BD0000020FEF720F80220FEF71DF80020FEF767
:104BE0001AF82A20FEF717F80020FEF714F83C20E8
:104BF000FEF711F80020FEF70EF84B20FEF70BF839
:104C00000020FEF708F85D20FEF705F80020FEF70B
:104C100002F87420FDF7FFFF0020FDF7FCFF842061
:104C2000FDF7F9FF0020FDF7F6FF9320FDF7F3FFF6
:104C30000020FDF7F0FFA220FDF7EDFF0020FDF7BB
:104C4000EAFFB320FDF7E7FF0020FDF7E4FFBE20F9
:104C5000FDF7E1FF0020FDF7DEFFC420FDF7DBFFDD
:104C60000020FDF7D8FFCD20FDF7D5FF0020FDF790
:104C7000D2FFD320FDF7CFFF0020FDF7CCFFDD20D2
:104C8000FDF7C9FF0020FDF7C6FFF320FDF7C3FFC6
:104C90000020FDF7C0FFE520FDF7B4FF0020FDF781
:104CA000BAFF0020FDF7B7FF0020FDF7B4FF00209A
:104CB000FDF7B1FF0220FDF7AEFF0020FDF7ABFFCF
:104CC0002920FDF7A8FF0020FDF7A5FF3C20FDF7F8
:104CD000A2FF0020FDF79FFF4B20FDF79CFF002067
:104CE000FDF799FF5D20FDF796FF0020FDF793FF8C
:104CF0007420FDF790FF0020FDF78DFF8420FDF765
:104D00008AFF0020FDF787FF9320FDF784FF002036
:104D1000FDF781FFA220FDF77EFF0020FDF77BFF5E
:104D2000B320FDF778FF0020FDF775FFBE20FDF7EB
:104D300072FF0020FDF76FFFC420FDF76CFF00201D
:104D4000FDF769FFCD20FDF766FF0020FDF763FF4B
:104D5000D320FDF760FF0020FDF75DFFDC20FDF7AD
:104D60005AFF0020FDF757FFF320FDF754FF002006
:104D7000FDF751FFE620FDF745FF1120FDF74BFF42
:104D80000020FDF748FF3420FDF745FF0020FDF728
:104D900042FF5620FDF73FFF0020FDF73CFF762045
:104DA000FDF739FF0020FDF736FF7720FDF733FFD1
:104DB0000020FDF730FF6620FDF72DFF0020FDF7F6
:104DC0002AFF8820FDF727FF0020FDF724FF992008
:104DD000FDF721FF0020FDF71EFFBB20FDF71BFFA5
:104DE0000020FDF718FF9920FDF715FF0020FDF7C3
:104DF00012FF6620FDF70FFF0020FDF70CFF552086
:104E0000FDF709FF0020FDF706FF5520FDF703FF22
:104E10000020FDF700FF4520FDF7FDFE0020FDF717
:104E2000FAFE4320FDF7F7FE0020FDF7F4FE4420D4
:104E3000FDF7F1FE0020FDF7EEFEE720FDF7E2FEB4
:104E40003220FDF7E8FE0020FDF7E5FE5520FDF7D6
:104E5000E2FE0020FDF7DFFE7620FDF7DCFE0020FD
:104E6000FDF7D9FE6620FDF7D6FE0020FDF7D3FE44
:104E70006720FDF7D0FE0020FDF7CDFE6720FDF78F
:104E8000CAFE0020FDF7C7FE8720FDF7C4FE002004
:104E9000FDF7C1FE9920FDF7BEFE0020FDF7BBFE29
:104EA000BB20FDF7B8FE0020FDF7B5FE9920FDF709
:104EB000B2FE0020FDF7AFFE7720FDF7ACFE00202C
:104EC000FDF7A9FE4420FDF7A6FE0020FDF7A3FE96
:104ED0005620FDF7A0FE0020FDF79DFE2320FDF7E4
:104EE0009AFE0020FDF797FE3320FDF794FE002088
:104EF000FDF791FE4520FDF78EFE0020FDF78BFEAD
:104F0000E820FDF77FFE0020FDF785FE0020FDF77D
:104F100082FE9920FDF77FFE0020FDF77CFE8720B2
:104F2000FDF779FE0020FDF776FE8820FDF773FE81
:104F30000020FDF770FE7720FDF76DFE0020FDF7E5
:104F40006AFE6620FDF767FE0020FDF764FE8820FC
:104F5000FDF761FE0020FDF75EFEAA20FDF75BFE77
:104F60000020FDF758FEBB20FDF755FE0020FDF7A1
:104F700052FE9920FDF74FFE0020FDF74CFE662003
:104F8000FDF749FE0020FDF746FE5520FDF743FEE4
:104F90000020FDF740FE5520FDF73DFE0020FDF707
:104FA0003AFE4420FDF737FE0020FDF734FE442092
:104FB000FDF731FE0020FDF72EFE5520FDF72BFEFC
:104FC0000020FDF728FEE920FDF71CFEAA20FDF7D2
:104FD00022FE0020FDF71FFE0020FDF71CFE002032
:104FE000FDF719FE0020FDF70DFEAA20FDF713FEC8
:104FF000CF20FDF707FE0020FDF70DFE0020FDF796
:105000000AFE0020FDF707FE0020FDF704FE002049
:10501000FDF701FE0020FDF7FEFD0020FDF7FBFD82
:105020000020FDF7F8FD0020FDF7F5FD0020FDF75D
:10503000F2FD0020FDF7EFFD0020FDF7ECFD002064
:10504000FDF7E9FD0020FDF7E6FD0020FDF7E3FD9B
:105050000020FDF7E0FD0020FDF7DDFDF020FDF76D
:10506000D1FD0020FDF7D7FD5020FDF7D4FD002035
:10507000FDF7D1FD0020FDF7CEFD0020FDF7CBFDB3
:10508000F320FDF7BFFD0020FDF7C5FDF920FDF77A
:10509000B9FD0620FDF7BFFD1020FDF7BCFD29205E
:1050A000FDF7B9FD0020FDF7B6FD3A20FDF7AAFD9A
:1050B0005520FDF7B0FD1120FDF7A4FD642003F09D
:1050C00033FF2920FDF79EFD3520FDF79BFD0020D5
:1050D000FDF7A1FD5120FDF795FDFF20FDF79BFD9C
:1050E0005320FDF78FFD2C20FDF795FD5520FDF792
:1050F00089FD8220FDF78FFD2C20FDF783FD02F056
:10510000E9B8FE48808845F2105188427ED1552189
:105110004FF47040FDF791FDAA214FF20100FDF719
:105120008CFD52214FF20200FDF787FD08214FF25E
:105130000300FDF782FD01214FF20400FDF77DFD24
:105140000D214FF43040FDF778FD0D214BF20100A9
:10515000FDF773FD0D214BF20200FDF76EFD3421CA
:105160004FF43640FDF769FD34214BF20160FDF745
:1051700064FD34214BF20260FDF75FFD0D214FF419
:105180003140FDF75AFD0D214BF20110FDF755FDA1
:105190000D214BF20210FDF750FD34214FF4374042
:1051A000FDF74BFD34214BF20170FDF746FD342134
:1051B0004BF20270FDF741FD00214FF43240FDF744
:1051C0003CFD00214BF20120FDF737FD00214BF2A1
:1051D0000220FDF732FD24214FF43840FDF72DFD6C
:1051E00024214BF60100FDF728FD24214BF6020097
:1051F000FDF723FD01214FF43F40FDF71EFD0F2178
:105200004FF43340FDF719FD0F2100E0FEE34BF2B0
:105210000130FDF712FD0F214BF20230FDF70DFDBD
:1052200034214FF43940FDF708FD34214BF60110CD
:10523000FDF703FD34214BF60210FDF7FEFC0821BB
:105240004FF43540FDF7F9FC08214BF20150FDF712
:10525000F4FC08214BF20250FDF7EFFC03214FF460
:105260004240FDF7EAFC24214FF43A40FDF7E5FC0B
:1052700024214BF60120FDF7E0FC24214BF602200F
:10528000FDF7DBFC00214FF43C40FDF7D6FC782114
:105290004BF60140FDF7D1FC00214BF60240FDF733
:1052A000CCFC00214FF43D40FDF7C7FC78214BF6C4
:1052B0000150FDF7C2FC00214BF60250FDF7BDFC8A
:1052C00000214FF43E40FDF7B8FC64214BF601602D
:1052D000FDF7B3FC00214FF45140FDF7AEFC332144
:1052E0004DF20110FDF7A9FC00214DF20210FDF76F
:1052F000A4FC34214DF20310FDF79FFC00214DF278
:105300000410FDF79AFC3A214DF20510FDF795FCCB
:1053100000214DF20610FDF790FC4A214DF20710D6
:10532000FDF78BFC00214DF20810FDF786FC5C2197
:105330004DF20910FDF781FC00214DF20A10FDF736
:105340007CFC81214DF20B10FDF777FC00214DF222
:105350000C10FDF772FCA6214DF20D10FDF76DFC4F
:1053600000214DF20E10FDF768FCE5214DF20F1003
:10537000FDF763FC01214DF21010FDF75EFC1321D7
:105380004DF21110FDF759FC01214DF21210FDF7FD
:1053900054FC54214DF21310FDF74FFC01214DF246
:1053A0001410FDF74AFC82214DF21510FDF745FC63
:1053B00001214DF21610FDF740FCCA214DF21710E5
:1053C000FDF73BFC02214DF21810FDF736FC0021E1
:1053D0004DF21910FDF731FC02214DF21A10FDF7C4
:1053E0002CFC01214DF21B10FDF727FC02214DF290
:1053F0001C10FDF722FC34214DF21D10FDF71DFCA1
:1054000002214DF21E10FDF718FC67214DF21F100E
:10541000FDF713FC02214DF22010FDF70EFC842154
:105420004DF22110FDF709FC02214DF22210FDF78B
:1054300004FCA4214DF22310FDF7FFFB02214DF2E5
:105440002410FDF7FAFBB7214DF22510FDF7F5FB0F
:1054500002214DF22610FDF7F0FBCF214DF227106F
:10546000FDF7EBFB02214DF22810FDF7E6FBDE21F4
:105470004DF22910FDF7E1FB02214DF22A10FDF754
:10548000DCFBF2214DF22B10FDF7D7FB02214DF290
:105490002C10FDF7D2FBFE214DF22D10FDF7CDFBB8
:1054A00003214DF22E10FDF7C8FB10214DF22F10F5
:1054B000FDF7C3FB03214DF23010FDF7BEFB332196
:1054C0004DF23110FDF7B9FB03214DF23210FDF71B
:1054D000B4FB6D214DF23310FDF7AFFB00214FF40B
:1054E0005240FDF7AAFB33214DF20120FDF7A5FB49
:1054F00000214DF20220FDF7A0FB01E0C8060020CC
:1055000034214DF20320FDF798FB00214DF20420D9
:10551000FDF793FB3A214DF20520FDF78EFB0021AC
:105520004DF20620FDF789FB4A214DF20720FDF7D9
:1055300084FB00214DF20820FDF77FFB5C214DF23A
:105540000920FDF77AFB00214DF20A20FDF775FBDB
:1055500081214DF20B20FDF770FB00214DF20C2054
:10556000FDF76BFBA6214DF20D20FDF766FB002138
:105570004DF20E20FDF761FBE5214DF20F20FDF706
:105580005CFB01214DF21020FDF757FB13214DF27A
:105590001120FDF752FB01214DF21220FDF74DFBCA
:1055A00054214DF21320FDF748FB01214DF2142048
:1055B000FDF743FB82214DF21520FDF73EFB012153
:1055C0004DF21620FDF739FBCA214DF21720FDF7E9
:1055D00034FB02214DF21820FDF72FFB00214DF284
:1055E0001920FDF72AFB02214DF21A20FDF725FBB9
:1055F00001214DF21B20FDF720FB02214DF21C2062
:10560000FDF71BFB34214DF21D20FDF716FB022197
:105610004DF21E20FDF711FB67214DF21F20FDF713
:105620000CFB02214DF22020FDF707FB84214DF2F7
:105630002120FDF702FB02214DF22220FDF7FDFAA9
:10564000A4214DF22320FDF7F8FA02214DF2242087
:10565000FDF7F3FAB7214DF22520FDF7EEFA02210E
:105660004DF22620FDF7E9FACF214DF22720FDF774
:10567000E4FA02214DF22820FDF7DFFADE214DF297
:105680002920FDF7DAFA02214DF22A20FDF7D5FA9A
:10569000F2214DF22B20FDF7D0FA02214DF22C2001
:1056A000FDF7CBFAFE214DF22D20FDF7C6FA0321BE
:1056B0004DF22E20FDF7C1FA10214DF22F20FDF7FB
:1056C000BCFA03214DF23020FDF7B7FA33214DF239
:1056D0003120FDF7B2FA03214DF23220FDF7ADFA89
:1056E0006D214DF23320FDF7A8FA00214FF453400D
:1056F000FDF7A3FA33214DF20130FDF79EFA0021A8
:105700004DF20230FDF799FA34214DF20330FDF7E6
:1057100094FA00214DF20430FDF78FFA3A214DF250
:105720000530FDF78AFA00214DF20630FDF785FAC3
:105730004A214DF20730FDF780FA00214DF2083082
:10574000FDF77BFA5C214DF20930FDF776FA002176
:105750004DF20A30FDF771FA81214DF20B30FDF761
:105760006CFA00214DF20C30FDF767FAA6214DF2DC
:105770000D30FDF762FA00214DF20E30FDF75DFAB3
:10578000E5214DF20F30FDF758FA01214DF21030AE
:10579000FDF753FA13214DF21130FDF74EFA0121B6
:1057A0004DF21230FDF749FA54214DF21330FDF756
:1057B00044FA01214DF21430FDF73FFA82214DF2F7
:1057C0001530FDF73AFA01214DF21630FDF735FAA2
:1057D000CA214DF21730FDF730FA02214DF2183090
:1057E000FDF72BFA00214DF21930FDF726FA0221C0
:1057F0004DF21A30FDF721FA01214DF21B30FDF771
:105800001CFA02214DF21C30FDF717FA34214DF23B
:105810001D30FDF712FA02214DF21E30FDF70DFA90
:1058200067214DF21F30FDF708FA02214DF22030BA
:10583000FDF703FA84214DF22130FDF7FEF9022134
:105840004DF22230FDF7F9F9A4214DF22330FDF796
:10585000F4F902214DF22430FDF7EFF9B7214DF2B2
:105860002530FDF7EAF902214DF22630FDF7E5F982
:10587000CF214DF22730FDF7E0F902214DF228301B
:10588000FDF7DBF9DE214DF22930FDF7D6F90221D3
:105890004DF22A30FDF7D1F9F2214DF22B30FDF710
:1058A000CCF902214DF22C30FDF7C7F9FE214DF263
:1058B0002D30FDF7C2F903214DF22E30FDF7BDF971
:1058C00010214DF22F30FDF7B8F903214DF23030A1
:1058D000FDF7B3F933214DF23130FDF7AEF9032175
:1058E0004DF23230FDF7A9F96D214DF23330FDF75D
:1058F000A4F900214FF45440FDF79FF933214DF2F4
:105900000140FDF79AF900214DF20240FDF795F9AB
:1059100034214DF20340FDF790F900214DF204408F
:10592000FDF78BF93A214DF20540FDF786F900218C
:105930004DF20640FDF781F94A214DF20740FDF78F
:105940007CF900214DF20840FDF777F95C214DF21A
:105950000940FDF772F900214DF20A40FDF76DF99B
:1059600081214DF20B40FDF768F900214DF20C400A
:10597000FDF763F9A6214DF20D40FDF75EF9002118
:105980004DF20E40FDF759F9E5214DF20F40FDF7BC
:1059900054F901214DF21040FDF74FF913214DF25A
:1059A0001140FDF74AF901214DF21240FDF745F98A
:1059B00054214DF21340FDF740F901214DF21440FE
:1059C000FDF73BF982214DF21540FDF736F9012133
:1059D0004DF21640FDF731F9CA214DF21740FDF79F
:1059E0002CF902214DF21840FDF727F900214DF264
:1059F0001940FDF722F902214DF21A40FDF71DF979
:105A000001214DF21B40FDF718F900E004E30221EB
:105A10004DF21C40FDF711F934214DF21D40FDF708
:105A20000CF902214DF21E40FDF707F967214DF2F6
:105A30001F40FDF702F902214DF22040FDF7FDF86D
:105A400084214DF22140FDF7F8F802214DF2224069
:105A5000FDF7F3F8A4214DF22340FDF7EEF8022103
:105A60004DF22440FDF7E9F8B7214DF22540FDF74E
:105A7000E4F802214DF22640FDF7DFF8CF214DF288
:105A80002740FDF7DAF802214DF22840FDF7D5F85E
:105A9000DE214DF22940FDF7D0F802214DF22A40D7
:105AA000FDF7CBF8F2214DF22B40FDF7C6F80221AD
:105AB0004DF22C40FDF7C1F8FE214DF22D40FDF7CF
:105AC000BCF803214DF22E40FDF7B7F810214DF23E
:105AD0002F40FDF7B2F803214DF23040FDF7ADF84D
